:020000040800F2
:10000000980400202D150008B5140008B714000846
:10001000B9140008BB140008BD140008000000005B
:10002000000000000000000000000000BF140008F5
:10003000C114000800000000C3140008C514000823
:100040006115000865150008691500086D150008A0
:100050007115000875150008791500087D15000850
:100060008115000885150008891500088D15000800
:100070009115000895150008991500089D150008B0
:10008000A1150008A5150008A9150008000000002A
:10009000000000000000000000000000AD15000896
:1000A000B1150008B5150008B9150008BD15000800
:1000B000C1150008C5150008C9150008CD150008B0
:1000C000D1150008D5150008D9150008DD15000860
:1000D000E1150008E5150008E9150008000000001A
:1000E000ED150008F1150008F515000800000000E6
:1000F000000000000000000000000000F9150008EA
:1001000000000000FD150008011600080516000893
:1001100000000000000000000000000000000000DF
:10012000091600080D16000811160008151600081B
:100130001916000800000000000000000000000088
:100140000000000000000000000000001D16000874
:100150002116000825160008291600082D1600088B
:1001600031160008351600080000000000000000ED
:10017000000000000000000000000000000000007F
:100180000000000039160008000000000000000018
:100190003D16000802206870211D206800F0D4F888
:1001A00001206870002032BD38B5040001D1012063
:1001B00032BD00F023F818B900F01CF800F017FA6F
:1001C000E8E710B500F01EF801E000F01FF800F0BD
:1001D0001EF92068DFF87810884205D1DFF8741026
:1001E0000A6842F400420A60016841F001010160BE
:1001F000002010BD002129702046704704F1380509
:100200006878704704460122206870470446080059
:1002100006D0042909D008290CD00C290FD013E0EE
:100220002068C26842F002020DE02068C26842F015
:10023000040208E02068C26842F0080203E0206877
:10024000C26842F01002C2602068012270470000BC
:10025000000001404400014070B500F063F801D196
:10026000022070BD00F065F832B1042A17D0082AC8
:1002700028D00C2A39D04AE03068294600F0D1F85D
:100280003068816941F0080100F048F821F004016C
:10029000816131688A69286902438A6137E0306880
:1002A000294600F08BF83068816941F4006100F064
:1002B00035F821F4806100F031F82A6941EA022121
:1002C000816124E03068294600F0D0F83068C169C7
:1002D00041F0080100F01EF821F00401C16131680D
:1002E000CA6928690243CA6111E03068294600F0F2
:1002F000E5F83068C16941F4006100F00BF821F4C1
:10030000806100F007F82A6941EA0221C16100F02A
:1003100015F870BDC1613068C1697047816130688E
:1003200081697047064606F138040D462078012899
:1003300070470120207002216170704701206070B9
:100340000021217000207047F0B56D4F03686D4C9F
:100350006D4D6E4EB84218BFB0F1804F04D0B04220
:100360001CBFA842A0420CD14A6823F0700313437B
:10037000B84218BFB0F1804F0ED0B04218BFA842AB
:100380000AD0A0421CBF624A904205D0614CA042F4
:100390001CBF614A904203D1CA6823F440731343DF
:1003A0000360B8428B68C3620A68826202D109693D
:1003B0005A4A116001234361F0BD000070B5026A22
:1003C0004F4E22F010020262B042056A436884690F
:1003D0000A6824F4E64444EA02248A6825F02005E9
:1003E00045EA02150DD1CA684E6925F0800545EA37
:1003F00002158A6923F44063164325F0400543EA59
:1004000086034360846149688163056270BD10B5ED
:10041000036A01248C40A343036202FA01F1036AD8
:100420007EE070B5026A520852000262066A4468B1
:1004300085690B688A6825F073051D4326F002065E
:1004400016432F4B98420BD1CA684B6926F0080619
:1004500024F4407416438A691C4326F004061443AE
:100460004460856149684163066270BD70B5026A87
:1004700022F480720262056A4368C4690A688E6861
:1004800024F0730414431E4A25F40075904245EA93
:1004900006250DD1CA684E6925F4006545EA022596
:1004A0008A6923F44053164325F4806543EA061312
:1004B0004360C4614968C163056270BD70B5026A7A
:1004C0000F4E22F480520262B042046A4268C3694D
:1004D0000D6823F4E64343EA05238D6824F40054B1
:1004E00044EA053404D14D6922F4804242EA85127F
:1004F0004260C36149680164046270BD000000008D
:1005000000000140000C00400008004000040040D2
:1005100000400140004401400048014030000140DB
:100520001943016210BD30B4002513E050F8042BCC
:10053000D30744BFA9F101039A18091F042942F8FF
:10054000045BFAD213468C0744BF15809B1CC90775
:1005500048BF1D7050F8041B0029E7D130BC70471C
:1005600080B50020009000224648416841F4804157
:100570004160416801F48041009100990092036854
:1005800043F080530360006800F0805000900098B2
:10059000072000F08AF8002200216FF00B0000F025
:1005A00091F8002200216FF00A0000F08BF8002281
:1005B00000216FF0090000F085F8002200216FF0A3
:1005C000040000F07FF8002200216FF0030000F02B
:1005D00079F8002200216FF0010000F073F8BDE807
:1005E0000840002200214FF0FF3000F06BB881B0CE
:1005F0000068B0F1804F0BD10021224800910268C1
:1006000042F001020260006800F0010000900098D2
:1006100001B070470068B0F1804F00D0704700B55E
:1006200085B02021009102220021029103910192C4
:10063000012104916946144800F0A6F805B000BDF8
:1006400000681249884200D0704780B586B0002209
:100650000C4800920222016841F4003101600C2133
:10066000006800F400300090009807480191029261
:100670000021039104910721059101A900F084F85C
:1006800007B000BD40380240000002400044004076
:100690000901020006D52A4A00F00F00104400F8B4
:1006A000041C7047274B19547047274B19684FF6A5
:1006B000FF020002114000F4E060084323490843B0
:1006C0001860704770B5204B1C68C4F302230124E6
:1006D000C3F10705052D2EBF0F2504FA05F56D1E84
:1006E0001E1D072E34BF0023DB1E2940994004FA4B
:1006F00003F3BDE870405B1E1A401143C8E710B514
:10070000401EB0F1807F01D3012010BD104C60600D
:100710000F214FF0FF30FFF7BBFF0021A160072042
:100720002060002010BD0428094904D1086840F069
:100730000400086070470A6822F004020A607047EB
:1007400018ED00E000E400E00CED00E00000FA0528
:1007500010E000E000F000B8704730B40EE002682E
:10076000436802440830DC0744BFA9F10104E318E0
:1007700052F8045B43F8045B091FF9D150F8041BDD
:100780000029ECD130BC70472DE9F84F4FF0000E36
:10079000624A634BDFF88C814FF00F0906468A46A8
:1007A0000121DAF8004001FA0EF10C408C4240F0D1
:1007B000AD80DAF80450022D18BF122D4FEA8E00DA
:1007C00012D14FEADE0506EB850C00F01C05DCF8C3
:1007D000207009FA05FB27EA0B07DAF810B00BFACC
:1007E00005F53D43CCF820504FEA4E0C0325376801
:1007F0009AF804B005FA0CF5ED430BF0030B2F400B
:100800000BFA0CFB4BEA07073760DAF80470012F8C
:1008100018BF022F03D0112F18BF122F13D1B768A2
:10082000DAF80CB02F400BFA0CFB4BEA0707B76065
:10083000776827EA0101DAF80470C7F3001707FAAE
:100840000EF739437160F1680D40DAF8081001FACB
:100850000CF12943F160DAF80410C90056D50025DF
:10086000009500F00C00D8F8001041F48041C8F861
:10087000001009FA00F7D8F8005005F480450095FB
:1008800000994FEA9E0153F8215025EA0707264DAB
:10089000AE4208BF002513D0244DAE4208BF01254B
:1008A0000ED0234DAE4208BF022509D0214DAE42E5
:1008B00008BF032504D0204DAE420CBF04250725F8
:1008C00005FA00F0384343F82100E0431168DAF8F4
:1008D00004500140ED0348BF214311605168DAF82C
:1008E00004500140AD0348BF214351609168DAF8DC
:1008F00004500140ED0248BF21439160D16801409E
:10090000DAF80400800248BF2143D1600EF1010EE5
:10091000BEF10F0F7FF644AFBDE8F18F003C014000
:100920000838014044380240000002400004024000
:1009300000080240000C0240001002402DE9F8437C
:10094000040016D02078AD4EC1074AD5B06800F03B
:100950000C00042807D0B06800F00C0008280AD169
:100960007068410207D5306881033AD56068002875
:1009700037D1012040E16068B0F5803F04D1306894
:1009800040F48030306011E0B0F5A02F306806D11F
:1009900040F480203060316841F4803105E020F47B
:1009A00080303060316821F480213160606860B14E
:1009B00000F02CF905463068810312D400F026F9C6
:1009C000401B6528F7D3032016E100F01FF9054608
:1009D0003068810305D500F019F9401B6528F7D36D
:1009E000F1E72078864F810718D5B06810F00C0F1A
:1009F00007D0B06800F00C00082823D170684102CD
:100A000020D43068810702D5E0680128B1D131686F
:100A1000206921F0F80141EAC0013160217808071E
:100A200042D56069774990B301220A6000F0EEF880
:100A30000546706F810737D400F0E8F8401B0228A4
:100A4000F7D9C0E7E068A8B10121396000F0DEF80D
:100A500005463068810705D400F0D8F8401B02280D
:100A6000F7D9B0E73068216920F0F80040EAC1000A
:100A70003060D3E7386000F0C9F805463168880770
:100A8000CCD500F0C3F8401B0228F7D99BE70860DB
:100A900000F0BCF80546706F810705D500F0B6F888
:100AA000401B0228F7D98EE7207841075FD5306CCC
:100AB0000025C1000AD400950125316C41F0805118
:100AC0003164306C00F0805000900098DFF838817D
:100AD000D8F80000C10513D4D8F8000040F48070A5
:100AE000C8F8000000F092F88146D8F80000C1056F
:100AF00006D400F08BF8A0EB09000228F5D962E7D4
:100B0000A068012805D00528306F06D140F0040008
:100B10003067306F40F0010005E04008400030676A
:100B2000306F20F00400306741F28938A06860B16E
:100B300000F06CF88146306F810713D400F066F83E
:100B4000A0EB09004045F6D33DE700F05FF8814691
:100B5000306F810706D500F059F8A0EB0900404539
:100B6000F6D330E71DB1306C20F080503064A069BE
:100B7000002840D0B16801F00C0108293FF4F9AE1B
:100B800002282AD10020386600F040F80546306877
:100B9000810105D500F03AF8401B0228F7D912E789
:100BA000E069216A626A0843A16A490840EA821042
:100BB000491E40EA0140E16A40EA0160706001209C
:100BC000386600F023F804463068810113D400F041
:100BD0001DF8001B0228F7D9F5E60020386600F062
:100BE00015F804463068810105D500F00FF8001BA8
:100BF0000228F7D9E7E60020BDE8F283003802407A
:100C000000004742800E47420070004001484068A3
:100C1000704700BF0000002078B589B000F028F9C7
:100C200000F0AAF800200090884C8948016841F043
:100C300004010160026802F004020092002200999F
:100C40000092036843F080030360016801F08001B3
:100C5000009100990092036843F00103036001686A
:100C600001F001010091009900924FF400510368D6
:100C7000784A43F002030360006800F0020000902D
:100C800000987548019102920021039101A9FFF794
:100C90007BFD724820604FF4E1310C20002260613E
:100CA0006160A260E2602261A261E261204600F020
:100CB000F9F800B1FEE740F24730694E706040F24B
:100CC000CF700021F0604FF08045B1603161356038
:100CD0003046FFF769FA00B1FEE70021009101916B
:100CE0003046694600F0DCF900B1FEE76021029170
:100CF000002203920492069202A93046FFF7ACFA52
:100D000000B1FEE73046FFF785FC01E00A392164B7
:100D1000206C80B200F087F8524901E0401C60640A
:100D2000606C8842FAD300206064216CA06C70B1C2
:100D3000B1F57A7FEADCB1F5FA7FC8BF891EE6DC3F
:100D40000029C8BF491EE2DC0020A064E0E7B1F53D
:100D5000FA7FB8BF491C03DBB1F57A7F01DA891C41
:100D60002164206CE96AA1F5FA71884202D20A3046
:100D70002064CDE70120E8E780B592B00020009024
:100D80003948016841F0805101600021006800F09D
:100D9000805000900098354800910221026822F4AA
:100DA000404242F4004202600122006800F44040E8
:100DB000009000980691099210210A9102220021C8
:100DC0000C920D9110224FF4A8710E920F910422F3
:100DD00007211092119106A8FFF7B0FD00B1FEE7C0
:100DE000022102910F204FF48051019000220491C2
:100DF00003920592022101A800F078F900B1FEE704
:100E000000F0F9F94FF47A71B0FBF1F0FFF777FCDD
:100E10000420FFF788FC002200214FF0FF30FFF78D
:100E200051FC13B000BD18B587B06022009201904C
:100E30000022029204926946094C2046FFF70CFA00
:100E400000212046FFF7BDF908B010BD10000020BA
:100E500030380240000021100008024000440040E9
:100E60005C000020A0860100403802400070004075
:100E700080B50B48016841F400710160026842F4DA
:100E800080620260016841F4807101600320FFF715
:100E90000CFC002000F000FAFFF762FB002002BD0E
:100EA000003C024038B5040001D1012032BD00F001
:100EB00021F808B900F022F800F012F800F023F849
:100EC000FFE7416100F001F832BD2068C16841F4DC
:100ED0000051C1600020686020216970A9707047CE
:100EE000242068702068C16821F40051C160204648
:100EF00000F013B804F138056878704700212970B4
:100F00002046FFF79DBB2068016921F490410161F3
:100F10002068416921F02A0170472DE9F047044615
:100F2000642522681169E06821F440510143116190
:100F30001926D3684848A168034020690B436169BA
:100F40000343E0690B430343D3605169A06921F473
:100F5000407101435161E36940484149B3F5004F95
:100F60003BD18A4218BF82420ED100F04FF90746AA
:100F700000F04CF9804600F049F9814600F046F94E
:100F8000824600F043F90DE000F038F9074600F022
:100F900035F9804600F032F9814600F02FF982469B
:100FA00000F02CF96168490000F06BF8AE46BCFB1C
:100FB000FEFE05FB1E77FF0032376423B7FBF3F319
:100FC0005B0003F4F87300F04DF8ED003235642057
:100FD000B5FBF0F000F0070039E08A4218BF82420A
:100FE0000ED100F013F9074600F010F9804600F02A
:100FF0000DF9814600F00AF9824600F007F90DE08C
:1010000000F0FCF8074600F0F9F8804600F0F6F82A
:10101000814600F0F3F8824600F0F0F8616889003C
:1010200000F02FF8AE46BCFBFEFE05FB1E773F012D
:1010300032376423B7FBF3F303F0F00300F012F848
:101040002D0132356420B5FBF0F000F00F0021686F
:10105000C3188B60BDE8F087F369FFFF00140140FF
:101060000010014003EB021306FB0AF74643B7FBEF
:10107000F1F2B6FBF1F06421B0FBF1F105FB1125B3
:1010800070477743B7FBF1F36422B3FBF2F206FB40
:1010900008F3B3FBF1F706FB09F3B3FBF1FC704770
:1010A00030B500F138031A78012A01D1022030BD91
:1010B00001221A7002245C700268546824F07004E3
:1010C0005460046865680A6815436560026894683E
:1010D00024F0800494600268946848680443946033
:1010E000012159700020187030BD00002DE9F04139
:1010F00004000F4654D04A4E306800F00F00B8424A
:1011000002D200F072F84BD12068464D810712D50B
:10111000400703D5A96841F4E051A9602078010790
:1011200003D5A86840F46040A860A968A06821F0D1
:10113000F0010143A9602178C80729D5606801281A
:1011400002D129688A0305E0022818BF032803D1C9
:1011500029688A0103D423E029688A0720D5A96871
:10116000890840EA8100A860FFF750FD8046A86822
:10117000616800F00C00B0EB810F09D0FFF746FD6D
:10118000A0EB080041F289318842F0D303202AE025
:10119000306800F00F00874204D200F026F801D03A
:1011A000012020E02078410705D5AA68E06822F4F4
:1011B000E0520243AA602178080706D5A968206991
:1011C00021F4604141EAC001A96000F035F8AA6845
:1011D0001549164BC2F30312895CC8401860002001
:1011E00000F05AF80020BDE8F0813770316801F056
:1011F0000F01B94270470D48006870470B480C4A10
:10120000006813680B49C3F3822206E00748084AC6
:10121000006813680749C3F34232895CC8407047CD
:10122000003C024000380240341400080C0000204A
:10123000083802405815000830B5144C606800F0BA
:101240000C00042802D0082802D01DE0104830BD50
:10125000226820680023410202F03F0204D525687D
:101260000B49C5F3881003E020680A49C0F38810D1
:10127000A1FB000100F030F82168C1F30141491CD5
:101280004900B0FBF1F030BD024830BD04380240E7
:1012900000127A000024F40038B50D4D0D4B2A7869
:1012A00004464FF47A711868B1FBF2F2B0FBF2F029
:1012B000FFF725FA50B9102C08D2002221464FF032
:1012C000FF30FFF7FFF9AC60002032BD012032BDD6
:1012D000000000200C000020D3BBD9B1B2F5803F44
:1012E0005BD2022A1ED98C46B1FBF2F102FB11C37C
:1012F0001B0443EA1043B3FBF2FC02FB1C3380B235
:1013000040EA0343B3FBF2F002FB103240EA0C4028
:1013100000237047022A05D98446B0FBF2F002FB95
:1013200010C270474AB105D100F0010249085FEAD6
:101330003000704700220023704700F051B80B00C6
:101340000200002100207047F7D3002200237047DD
:10135000904271EB030CF2D370B5B1FA81F4B3FA99
:1013600083F52C1BA340C4F1200532FA05F6334364
:10137000A2405FF00046E64002E05B085FEA32020E
:10138000841A71EB030524BF204629467641F4D325
:1013900002000B003000002170BD70B5B1FA81F47D
:1013A000B2FA82F5C4F120046419B4F12006DAD34C
:1013B000B2405FF00044F440002502E052085FEACA
:1013C0003303C61A71EB020E24BF304671466441E6
:1013D0006D41F3D302000B002000290070BD000016
:1013E000704700000E48016841F47001016000225E
:1013F0000C49086840F0010008608A600B680A48E0
:101400000A4A03400B604A6000200B68084A23F434
:1014100080230B60C8604FF00061116070470000CE
:1014200088ED00E000380240FFFFF6FE1030002497
:1014300008ED00E0000000000000000001020304CD
:101440000607080910B5074979441831064C7C4451
:10145000163404E00A68081D114488470146A14279
:10146000F8D110BD2C0000004C0000004EF6885151
:10147000CEF20001086840F470000860BFF34F8F9F
:10148000BFF36F8F4FF00070E1EE100A704700005D
:1014900097F0FFFF8800000010000020000000000F
:1014A000BBF2FFFF100000009400000000000020CD
:1014B000000000007047FEE7FEE7FEE7FEE770472A
:1014C0007047704780B500F005F8BDE80140FFF7B0
:1014D00041B900000248416802788A1842607047AA
:1014E0000000002000F00DF8002801D0FFF7AAFF4F
:1014F000AFF300800020AFF30080FFF78DFB00F01A
:1015000002F80120704700F001B800000746384695
:1015100000F002F8FBE7000080B5AFF30080024A5C
:1015200011001820ABBEFBE72600020001488047EF
:1015300001480047E51300084D15000801000000B0
:1015400000000000100000000024F400AFF3008051
:10155000FFF78CFFFFF7C6FF000000000102030445
:10156000FFF7FEBFFFF7FEBFFFF7FEBFFFF7FEBFAF
:10157000FFF7FEBFFFF7FEBFFFF7FEBFFFF7FEBF9F
:10158000FFF7FEBFFFF7FEBFFFF7FEBFFFF7FEBF8F
:10159000FFF7FEBFFFF7FEBFFFF7FEBFFFF7FEBF7F
:1015A000FFF7FEBFFFF7FEBFFFF7FEBFFFF7FEBF6F
:1015B000FFF7FEBFFFF7FEBFFFF7FEBFFFF7FEBF5F
:1015C000FFF7FEBFFFF7FEBFFFF7FEBFFFF7FEBF4F
:1015D000FFF7FEBFFFF7FEBFFFF7FEBFFFF7FEBF3F
:1015E000FFF7FEBFFFF7FEBFFFF7FEBFFFF7FEBF2F
:1015F000FFF7FEBFFFF7FEBFFFF7FEBFFFF7FEBF1F
:10160000FFF7FEBFFFF7FEBFFFF7FEBFFFF7FEBF0E
:10161000FFF7FEBFFFF7FEBFFFF7FEBFFFF7FEBFFE
:10162000FFF7FEBFFFF7FEBFFFF7FEBFFFF7FEBFEE
:10163000FFF7FEBFFFF7FEBFFFF7FEBFFFF7FEBFDE
:040000050800154D8D
:00000001FF
