:020000040800F2
:1000000090040020311C0008551A0008571A0008F7
:10001000591A00085B1A00085D1A00080000000069
:100020000000000000000000000000005F1A00084F
:10003000611A000800000000631A0008651A000831
:10004000611C0008651C0008691C00086D1C000884
:10005000711C0008751C0008791C00087D1C000834
:10006000811C0008851C0008891C00088D1C0008E4
:10007000911C0008951C0008991C00089D1C000894
:10008000A11C0008A51C0008A91C00080000000015
:10009000000000000000000000000000AD1C00088F
:1000A000B11C0008B51C0008B91C0008BD1C0008E4
:1000B000C11C0008C51C0008C91C0008CD1C000894
:1000C000D11C0008D51C0008D91C0008DD1C000844
:1000D000E11C0008E51C0008E91C00080000000005
:1000E000711A0008ED1C0008F11C00080000000057
:1000F000000000000000000000000000F51C0008E7
:1001000000000000F91C0008FD1C0008011D00088B
:1001100000000000000000000000000000000000DF
:10012000051D0008091D00080D1D0008111D00080F
:10013000151D000800000000000000000000000085
:10014000000000000000000000000000191D000871
:100150001D1D0008211D0008251D0008291D00087F
:100160002D1D0008311D00080000000000000000E7
:10017000000000000000000000000000000000007F
:1001800000000000351D0008000000000000000015
:10019000391D000810B50400002C01D1012014E025
:1001A00094F83900002805D1002084F83800200098
:1001B00000F01BFA022084F83900211D206800F0AD
:1001C000A3F8012084F83900002010BD38B50400E0
:1001D0000D0001222900206800F019F92068DFF8DD
:1001E0002410884205D12068406C50F400402168FA
:1001F00048642068006850F0010021680860002011
:1002000032BD00000000014070B504000D00160072
:1002100094F83800012801D1022074E0012084F80C
:100220003800022084F839003000002806D0042865
:100230001BD0082831D00C2846D05DE0290020686A
:1002400000F0F4F82068806950F0080021688861A7
:100250002068806930F00400216888612068816925
:10026000286901432068816146E02900206800F088
:1002700099F82068806950F40060216888612068DE
:10028000806930F48060216888612068806929690C
:1002900050EA0120216888612EE02900206800F0E2
:1002A000F3F82068C06950F008002168C861206830
:1002B000C06930F004002168C8612068C1692869FC
:1002C00001432068C16117E02900206800F00EF9A1
:1002D0002068C06950F400602168C8612068C06966
:1002E00030F480602168C8612068C069296950EADB
:1002F00001202168C861FFE7012084F8390000204F
:1003000084F83800002070BD10B400220468DFF8C3
:10031000303298420ED0B0F1804F0BD0DFF824225B
:10032000904207D0DFF82022904203D0DFF81C2251
:10033000904201D1012200E00022D2B2002A03D073
:1003400034F070044A681443984214D0B0F1804FDE
:1003500011D07C4A90420ED07B4A90420BD07B4A0F
:10036000904208D07A4A904205D07A4A904202D010
:10037000794A904201D1012200E00022D2B2002A43
:1003800003D034F44074CA68144304608A68C262BB
:100390000A688262984201D10A69026301224261BD
:1003A00010BC7047F0B4002500260027026A32F026
:1003B00010020262046A4268836933F4E04333F452
:1003C0004073D1F800C053EA0C2334F02004D1F874
:1003D00008C054EA0C14DFF868C1604510D134F04D
:1003E0008004CD6854EA051434F0400432F480628D
:1003F00032F400624D6952EA85028D6952EA850243
:10040000426083614D6885630462F0BC704770B4DC
:10041000002401258D40036AAB430362066A12FA89
:1004200001F31E43066270BC70470000F0B4002662
:1004300000275FF0000C026A520852000262056A4F
:100440004368846934F07004A408A4000A68144363
:1004500035F002058A681543394A90420DD135F0CE
:100460000805CA68154335F0040533F4807333F486
:1004700000734A6913438A691343436084614A687D
:1004800042630562F0BC7047F0B4002600275FF0BD
:10049000000C026A32F480720262056A4368C46921
:1004A00034F07004A408A4000A68144335F40075FD
:1004B0008A6855EA0225224A904210D135F4006537
:1004C000CA6855EA022535F4806533F4805333F465
:1004D00000534A6953EA02138A6953EA02134360DC
:1004E000C4614A68C2630562F0BC7047F0B4002280
:1004F00000240026036A33F480530362056A4768C8
:10050000C36933F4E04333F44073D1F800C053EAD5
:100510000C2335F40055D1F808C055EA0C35DFF846
:1005200020C0604504D137F480474A6957EA8217F2
:100530004760C3614A6802640562F0BC704700000E
:10054000000001400004004000080040000C004092
:1005500000400140004401400048014080B50020B7
:1005600000904848016851F480410160006810F42F
:10057000804000900098002000904348016851F0AE
:1005800080510160006810F08050009000980720B2
:1005900000F0EDF8002200217FF00B0000F0EDF8F4
:1005A000002200217FF00A0000F0E7F8002200217D
:1005B0007FF0090000F0E1F8002200217FF0040044
:1005C00000F0DBF8002200217FF0030000F0D5F8F6
:1005D000002200217FF0010000F0CFF8002200216E
:1005E0005FF0FF3000F0C9F801BD81B00168B1F1E2
:1005F000804F0BD10021009123490A6852F001027B
:100600000A60096811F001010091009901B070477A
:1006100018B585B004002068B0F1804F0DD10120DD
:100620000090022001900020029000200390012001
:1006300004906946154800F003F906B010BD10B5E6
:1006400086B0040020681249884219D10020009029
:100650000D48016851F400310160006810F4003069
:10066000009000980C20019002200290002003903E
:10067000002004900720059001A9044800F0E0F84C
:1006800006B010BD4438024040380240000002402D
:100690000044004010B410F00703504C22684FF69D
:1006A000FF010A404E4951EA03210A43226010BC6F
:1006B00070474A480068C0F302207047012210F0DA
:1006C0001F018A40474903005BB25B0941F82320C0
:1006D000704710B4020052B2002A09D50A01424BF9
:1006E000040064B214F00F04234403F8042C04E063
:1006F0000A013E4B040064B21A5510BC704770B436
:10070000030013F00704D4F10700052801D30420E7
:1007100001E0D4F10700251D072D01D2002500E0DE
:10072000E51E012616FA00F0401E0140A94016FA07
:1007300005F56D1E2A401143080070BC704710B5C6
:100740000400601EB0F1807F01D301200EE0601E26
:10075000274908600F215FF0FF30FFF7BAFF002044
:1007600024490860072024490860002010BD10B506
:1007700004002000FFF78EFF10BD2DE9F0410400BA
:100780000D0016000027FFF794FF80463200290075
:100790004046FFF7B4FF0100200040B2FFF799FF89
:1007A000BDE8F08110B50400200040B2FFF786FFDD
:1007B00010BD10B504002000FFF7C1FF10BD0428D4
:1007C00005D10D490A6852F004020A6004E00A49A2
:1007D0000A6832F004020A60704700000CED00E085
:1007E0000000FA0500E100E018ED00E000E400E0A0
:1007F00014E000E018E000E010E000E080B500F058
:1008000001F801BD704730B4002513E050F8042B07
:10081000D30744BFA9F101039A18091F042942F81C
:10082000045BFAD213468C0744BF15809B1CC90792
:1008300048BF1D7050F8041B0029E7D130BC704739
:100840002DE9F8410023002400260025102D80F01A
:10085000ED80012717FA05F213000A681A40140008
:100860009C4240F0E1804A68022A02D04A68122A7B
:100870001FD12A00D20800EB8202D2F820C05FF01C
:100880000F0E15F00702D2B292001EFA02FE3CEAE9
:100890000E0CD1F810E015F00702D2B292001EFA49
:1008A00002FE5EEA0C0C66462A00D20800EB8202C9
:1008B0001662D0F800C05FF0030E2A00D2B25200D8
:1008C0001EFA02F23CEA020C91F8048018F00308C8
:1008D0002A00D2B2520018FA02F858EA0C0CC0F8FA
:1008E00000C04A68012A08D04A68022A05D04A682E
:1008F000112A02D04A68122A1BD186682A00D2B275
:1009000052001EFA02F29643D1F80C802A00D2B2AD
:10091000520018FA02F858EA060686604268AF40AC
:10092000BA434F68C7F30017AF403A439446C0F844
:1009300004C0C6682A00D2B252001EFA02FE36EA8D
:100940000E068F682A00D2B2520097403E43C6601E
:100950004A68D20068D5002200923D4A176857F4D1
:1009600080471760126812F480420092009ADFF804
:10097000E4C02A0092085CF822705FF00F0E15F0B8
:100980000302D2B292001EFA02FE37EA0E07324A82
:10099000904201D1002614E0304A904201D1012654
:1009A0000FE02F4A904201D102260AE02D4A9042E0
:1009B00001D1032605E02C4A904201D1042600E033
:1009C0000726F6B215F00302D2B2920096403743E2
:1009D0002A0092084CF82270244E3268A243D1F8C3
:1009E00004C05FEACC3C00D522433260204F3E6811
:1009F000A643D1F804C05FEA8C3C00D526433E6094
:100A00001C4F3A68A243D1F804C05FEACC2C00D551
:100A100022433A60184F3E68A643D1F804C05FEA0B
:100A20008C2C00D526433E606D1C0FE7BDE8F1819C
:100A300010B5040011480168220092B2114206D09C
:100A4000210089B20160200080B200F019F810BDC9
:100A500044380240083801400000024000040240CF
:100A600000080240000C024000100240003C01401F
:100A7000043C0140083C01400C3C0140143C014056
:100A8000704730B40EE00268436802440830DC0767
:100A900044BFA9F10104E31852F8045B43F8045B76
:100AA000091FF9D150F8041B0029ECD130BC704764
:100AB0002DE9FC410400002C01D10120A2E12078A5
:100AC000C0075CD5DFF84003016811F00C01042970
:100AD00009D0006810F00C0008280ED1DFF82C03B4
:100AE0000068400209D5DFF828030068800346D576
:100AF0006068002843D1012084E16068B0F5803F40
:100B000006D1DFF80C03016851F48031016017E071
:100B10006068B0F5A02F0AD1DFF8F402016851F443
:100B200080210160016851F48031016008E0B8481B
:100B3000016831F480310160016831F48021016085
:100B4000606800280DD000F073F90500B048006817
:100B5000800314D400F06CF9401B6528F6D3032001
:100B600050E100F065F90500A9480068800306D54A
:100B700000F05EF9401B6528F6D3032042E120789F
:100B800080074BD5A048016811F00C0F08D0006811
:100B900010F00C00082814D19C480068400210D4C2
:100BA0009B480168890704D5E168012901D001202B
:100BB00028E1016831F0F801226951EAC2010160BF
:100BC0002CE0E068002818D001209249086000F06D
:100BD0002FF905008E480168890706D400F028F92E
:100BE000401B0328F6D303200CE1016831F0F80123
:100BF000226951EAC201016010E0002085490860C5
:100C000000F016F9050082480068800706D500F05C
:100C10000FF9401B0328F6D30320F3E020780007E8
:100C200024D56069002810D001207B49086000F0BD
:100C3000FFF8050079480068800717D400F0F8F83D
:100C4000401B0328F6D30320DCE000207249086033
:100C500000F0EEF8050071480068800706D500F046
:100C6000E7F8401B0328F6D30320CBE020784007A9
:100C700075D500266A4F3868C0000CD4002000905B
:100C8000386850F080503860386810F0805000901C
:100C9000009801200600DFF88C81D8F80000C0051C
:100CA00013D4D8F8000050F48070C8F8000000F0A9
:100CB000BFF80500D8F80000C00506D400F0B8F869
:100CC000401B0328F6D303209CE0A068012805D12F
:100CD0005548016851F00101016015E0A068052840
:100CE00009D15148016851F004010160016851F0D7
:100CF0000101016008E04C480168490849000160B1
:100D0000016831F004010160A06800280FD000F0F4
:100D10008FF8050044480068800718D400F088F870
:100D2000401B41F289318842F4D303206AE000F08D
:100D30007FF805003C480068800708D500F078F887
:100D4000401B41F289318842F4D303205AE030003D
:100D5000C0B2012803D1386830F080503860A069F3
:100D600000284ED02848006810F00C00082846D013
:100D7000A069022832D12D4E0020306000F058F8D2
:100D80000700DFF88C80D8F80000800106D500F05D
:100D90004FF8C01B0328F4D3032033E0E169206A35
:100DA0000143606A51EA8011A06A4008401E51EA7E
:100DB0000041E06A51EA006114480160012030609E
:100DC00000F036F80500D8F80000800119D400F0D2
:100DD0002FF8401B0328F6D3032013E0002013490B
:100DE000086000F025F8050009480068800108D572
:100DF00000F01EF8401B0328F6D3032002E0012078
:100E000000E00020BDE8F6810838024004380240C6
:100E10000038024000004742800E474274380240CA
:100E20004038024000700040703802406000474285
:100E300001480068704700BF8800002010B504001A
:100E4000002C01D1012033E0A0690028FFD194F8E3
:100E50003900002805D1002084F838002000FFF771
:100E6000EEFB242084F839002068C06830F400507C
:100E70002168C860200000F01CF82068006930F488
:100E80009040216808612068406930F02A0021689C
:100E900048612068C06850F400502168C860002094
:100EA000E063202084F83900202084F83A000020F4
:100EB00010BD2DE9F843050000212868026932F4CD
:100EC0004052E8680243286802612868C368B24853
:100ED0000340AC682869044368690443E869044333
:100EE00023432868C3602868446934F44074A869BF
:100EF000044328684461E869B0F5004F40F0A680DB
:100F00002868A649884203D02868A54988424ED15E
:100F100000F0F5F9060000F0F2F9070000F0EFF933
:100F2000804600F0ECF9814600F0E9F964211922CD
:100F300056436B685B00B6FBF3F36426B3FBF6F332
:100F400057436E687600B7FBF6F602FB08F86F6849
:100F50007F00B8FBF7F75FF0640CB7FBFCF701FB11
:100F60001766F60032366427B6FBF7F6760016F4FD
:100F7000F87616EB031602FB09F96B685B00B9FB08
:100F8000F3F302FB00F268684000B2FBF0F0642269
:100F9000B0FBF2F001FB1031C80032306421B0FB2D
:100FA000F1F010F00700861928688660F1E000F083
:100FB0009BF9060000F098F9070000F095F98046CB
:100FC00000F092F9814600F08FF96421192256430E
:100FD0006B685B00B6FBF3F36426B3FBF6F3574391
:100FE0006E687600B7FBF6F602FB08F86F687F00C4
:100FF000B8FBF7F75FF0640CB7FBFCF701FB176673
:10100000F60032366427B6FBF7F6760016F4F8766B
:1010100016EB031602FB09F96B685B00B9FBF3F3EF
:1010200002FB00F268684000B2FBF0F06422B0FB03
:10103000F2F001FB1031C80032306421B0FBF1F056
:1010400010F00700861928688660A2E028685349D6
:10105000884203D02868524988424DD100F04FF9A8
:10106000060000F04CF9070000F049F9804600F056
:1010700046F9814600F043F96421192256436B6812
:101080009B00B6FBF3F36426B3FBF6F357436E689D
:10109000B600B7FBF6F602FB08F86F68BF00B8FBB6
:1010A000F7F75FF0640CB7FBFCF701FB176636013E
:1010B00032366427B6FBF7F616F0F00616EB031689
:1010C00002FB09F96B689B00B9FBF3F302FB00F22A
:1010D00068688000B2FBF0F06422B0FBF2F001FB24
:1010E0001031080132306421B0FBF1F010F00F0034
:1010F0008619286886604CE000F0F6F8060000F0DB
:10110000F3F8070000F0F0F8804600F0EDF88146B3
:1011100000F0EAF86421192256436B689B00B6FB85
:10112000F3F36426B3FBF6F357436E68B600B7FBE0
:10113000F6F602FB08F86F68BF00B8FBF7F75FF040
:10114000640CB7FBFCF701FB1766360132366427E7
:10115000B6FBF7F616F0F00616EB031602FB09F9DC
:101160006B689B00B9FBF3F302FB00F26868800038
:10117000B2FBF0F06422B0FBF2F001FB1031080189
:1011800032306421B0FBF1F010F00F0086192868AE
:101190008660BDE8F1830000F369FFFF00100140A5
:1011A000001401402DE9F04104000D00002C01D194
:1011B000012094E0574F386810F00F00A84207D282
:1011C0003D70386810F00F00A84201D0012086E081
:1011D0002078800716D52078400704D54E4801684E
:1011E00051F4E05101602078000704D54A480168B5
:1011F00051F46041016048490A6832F0F002A06889
:1012000002430A602078C00738D56068012805D1FC
:1012100042480068800313D4012060E0606802281F
:1012200002D06068032805D13C480068800107D4DB
:10123000012054E039480068800701D401204EE0C5
:10124000DFF8D480D8F8001089088900606801436D
:10125000C8F80010FFF7ECFD0600D8F8000010F009
:101260000C006168B0EB810F08D0FFF7E1FD801B37
:1012700041F289318842F0D3032030E0386810F021
:101280000F00854207D23D70386810F00F00A84269
:1012900001D0012023E02078400706D51E490A68C6
:1012A00032F4E052E06802430A602078000707D574
:1012B0001948016831F46041226951EAC2010160B4
:1012C00000F034F81649144A1268C2F30312895C1C
:1012D000C84014490860002000F076F80020BDE8FE
:1012E000F08110480068704780B5FFF7FAFF0E499B
:1012F000094A1268C2F38222895CC84002BD80B5E7
:10130000FFF7EFFF0849044A1268C2F34232895CD2
:10131000C84002BD003C024008380240003802408C
:10132000201C000804000020581C00082DE9F04192
:1013300000240025002600271F48006810F00C003C
:10134000002804D0042804D0082804D031E01B4829
:1013500030E01B482EE0DFF86C80D8F8000010F079
:101360003F000400D8F8000040020CD5D8F8000077
:10137000C0F388101249A1FB00012200002300F0F5
:1013800049F805000BE0D8F80000C0F388100B49BD
:10139000A1FB00012200002300F03CF80500D8F872
:1013A0000000C0F30140401C40000600B5FBF6F011
:1013B00000E00248BDE8F081083802400024F40053
:1013C00000127A000438024010B504004FF47A701D
:1013D0000D490978B0FBF1F00C490968B1FBF0F058
:1013E000FFF7E7F9002801D001200CE0102C09D20A
:1013F000002221005FF0FF30FFF7BFF904480460CE
:10140000002000E0012010BD0800002004000020A2
:1014100000000020BBBBE1B1B2F5803F80F07E80D0
:10142000022A1ED98C46B1FBF2F102FB11C31B0448
:1014300043EA1043B3FBF2FC02FB1C3380B240EAE8
:101440000343B3FBF2F002FB103240EA0C400023EE
:101450007047022A05D98446B0FBF2F002FB10C2A5
:1014600070474AB105D100F0010249085FEA300037
:10147000704700220023704700F0E4B80B00020020
:10148000002100207047904271EB030CF6D3B3F5B6
:10149000803F2FD2F0B5B3FA83F7B1FA81F4A7F108
:1014A0000F0E3D1B5340CEF1200602FA0EF2F3411F
:1014B0005340B5F10F0746D80F3C2C444140C4F1CE
:1014C0002006A040F1414140B1FBF3F603FB1611A9
:1014D000A2FB0645001BA94102D2761E8018594185
:1014E00080EA010221FA0EF362FA0EF200215A405C
:1014F0003046F0BD30B4B1FBF3FC03FB1C11A2FB82
:101500000C45001BA94103D2ACF1010C80185941D4
:1015100030BC02460B46604600217047B2F1807F26
:1015200065D3F0B5B2FA82F7B1FA81F4C7F10F06CC
:101530003D1B22FA06F307F1110EF24120355A4005
:10154000B5F10F07B8D94140C4F12006A040F141E0
:101550004140B1FBF3FC03FB1C11A2FB0C45001B3B
:10156000A94103D2BCF1010C801859410F2F12D3AD
:101570000F3FC90341EA5041B1FBF3F603FB1611DB
:10158000A2FB0645D4EBC030A94102D2761E8018DA
:10159000594146EACC3C07B34140C7F12006B84068
:1015A000F1414140B1FBF3F603FB1611A2FB0645E6
:1015B000001BA94102D2761E8018594180EA01021F
:1015C00021FA0EF3C7F1200462FA0EF20CFA07F0CA
:1015D0005A402CFA04F13043F0BD80EA010221FAAE
:1015E0000EF3002162FA0EF260465A40F0BD8C46BE
:1015F000B1FBF2F102FB11C31B0243EA1063B3FB20
:10160000F2FC02FB1C331B024CEA002043EA10638D
:10161000B3FBF2FC02FB1C331B024CEA002043EA42
:101620001063B3FBF2FC02FB1C331B024CEA0020EC
:1016300043EA1063B3FBF2FC02FB1C324CEA0020CD
:10164000002370477047000080B500F0A7F900F054
:101650004AF800F004F900F0E5F800F0A4F8C148F9
:101660000178002908D0022916D00DD304292AD0E8
:101670001ED305292DD033E000F03EF9BA480168A9
:1016800031F020010160EAE700F036F9B648016860
:1016900051F020010160E2E700F02EF9B248016844
:1016A00091F0200101604FF4FA7000F091F9D6E753
:1016B00000F022F9AC48016891F02001016064203B
:1016C00000F086F9CBE700F021F9642000F031F951
:1016D000C5E700F01BF940F26C7000F02AF9BEE794
:1016E00000210170BBE780B592B0002000909F48B8
:1016F000016851F080510160006810F08050009046
:101700000098002000909A48016831F4404151F45B
:1017100000410160006810F44040009000980220F1
:1017200006900120099010200A9002200C900020C1
:101730000D9010200E904FF4A8700F900420109080
:101740000720119006A8FFF7B3F9002803D0BB21AA
:10175000884800F021F90F2001900220029000201B
:1017600003904FF48050049000200590022101A8BE
:10177000FFF718FD002803D0C9217E4800F00CF9BE
:10178000FFF7AFFD4FF47A71B0FBF1F0FFF711F8FE
:101790000420FFF714F8002200215FF0FF30FEF76D
:1017A000ECFF13B000BD18B589B0734C5FF08040FA
:1017B000206040F2473060600020A06040F2CF70AF
:1017C000E060002020612000FEF7E4FC002803D048
:1017D000E621684800F0E0F8002000900020019029
:1017E0006946200000F008F9002803D0ED21614887
:1017F00000F0D2F8602002900020039000200490B6
:1018000000200690002202A92000FEF7FDFC00281F
:1018100003D0F621574800F0BFF82000FEF7F8FE8D
:101820000AB010BD80B55548554901605FF4E131FB
:101830004160002181600021C160002101610C2113
:101840004161002181610021C161FFF7F7FA0028A1
:1018500004D040F20B11474800F09EF801BD10B5CE
:1018600086B0002000904748016851F004010160F3
:10187000016811F0040100910099002100910168B4
:1018800051F080010160016811F080010091009920
:1018900000210091016851F001010160016811F01F
:1018A00001010091009900210091016851F00201AD
:1018B0000160006810F00200009000984FF40050A2
:1018C0000190314C02940020039001A92F48FEF7AB
:1018D000B7FF2020019002940020039001A92C481A
:1018E000FEF7AEFF002200212820FEF746FF282049
:1018F000FEF758FF06B010BD2548016851F480611D
:101900000160016831F4006101607047204801689E
:1019100031F480610160016851F4006101601D488B
:10192000016851F480110160016831F460010160C7
:10193000704730B587B0040060200090200080B26E
:10194000019000200290002004900B4D0022694677
:101950002800FEF759FC00212800FEF737FC07B0ED
:1019600030BD00008C0000201400024040380240CE
:10197000007000403C1B00084C0000200C000020C0
:1019800000440040303802400000111000080240BE
:101990000000024020000240FEE7000080B50B4836
:1019A000016851F400710160016851F480610160C7
:1019B000016851F4807101600320FEF7D8FE002019
:1019C000FFF702FDFEF7CAFD002002BD003C024009
:1019D00070B50400FFF72CFA0500260016F1010F80
:1019E00002D0044800783618FFF722FA401BB042B4
:1019F000FAD370BD08000020020092F838000128D8
:101A000001D1022024E0012082F83800022082F86F
:101A100039001068406830F0700013685860106832
:101A2000436808680343106843601068806830F0BA
:101A300080001368986010688368486803431068E2
:101A40008360012082F83900002082F838000020ED
:101A5000704700007047FEE7FEE7FEE7FEE77047CD
:101A60007047704780B500F02DF8FEF7C7FE01BD46
:101A700080B513480178002908D002290CD008D37A
:101A800004290FD00BD305290FD011E001210170DB
:101A900010E0022101700DE0032101700AE0042131
:101AA000017007E00521017004E00021017001E0F0
:101AB000002101704FF40050FEF7BAFF01BD000095
:101AC0008C00002003480168034A127889180160DD
:101AD000704700BF88000020080000200F48016800
:101AE00051F4700101600E49086850F0010008606F
:101AF00000200C4A10600A680B4802400A600B483C
:101B00000B4A1060086830F4802008600020094902
:101B100008605FF0006008490860704788ED00E0E9
:101B20000038024008380240FFFFF6FE1030002463
:101B3000043802400C38024008ED00E0433A5C559E
:101B4000575F576F726B73706163655C656D62732D
:101B500079733130305C576B5F31305C5372635C4A
:101B60006D61696E2E63000010B507497944183124
:101B7000064C7C44163404E00A68081D114488476A
:101B80000146A142F8D110BD2C0000004C0000001D
:101B90004EF68851CEF20001086840F470000860EB
:101BA000BFF34F8FBFF36F8F4FF00070E1EE100A5D
:101BB0007047000053ECFFFF840000000C00002081
:101BC00000000000BFEEFFFF0C00000080000000DE
:101BD000000000200000000000F00DF8002801D0F7
:101BE000FFF7C2FFAFF300800020AFF30080FFF7E4
:101BF0002BFD00F002F80120704700F001B8000052
:101C00000746384600F002F8FBE7000080B5AFF366
:101C10000080024A11001820ABBEFBE7260002003C
:101C2000000000000000000001020304060708098C
:101C30000148804701480047DD1A0008411C0008A0
:101C4000AFF30080FFF7A4FFFFF7C6FF100000000E
:101C50000024F40001000000000000000102030461
:101C6000FFF7FEBFFFF7FEBFFFF7FEBFFFF7FEBFA8
:101C7000FFF7FEBFFFF7FEBFFFF7FEBFFFF7FEBF98
:101C8000FFF7FEBFFFF7FEBFFFF7FEBFFFF7FEBF88
:101C9000FFF7FEBFFFF7FEBFFFF7FEBFFFF7FEBF78
:101CA000FFF7FEBFFFF7FEBFFFF7FEBFFFF7FEBF68
:101CB000FFF7FEBFFFF7FEBFFFF7FEBFFFF7FEBF58
:101CC000FFF7FEBFFFF7FEBFFFF7FEBFFFF7FEBF48
:101CD000FFF7FEBFFFF7FEBFFFF7FEBFFFF7FEBF38
:101CE000FFF7FEBFFFF7FEBFFFF7FEBFFFF7FEBF28
:101CF000FFF7FEBFFFF7FEBFFFF7FEBFFFF7FEBF18
:101D0000FFF7FEBFFFF7FEBFFFF7FEBFFFF7FEBF07
:101D1000FFF7FEBFFFF7FEBFFFF7FEBFFFF7FEBFF7
:101D2000FFF7FEBFFFF7FEBFFFF7FEBFFFF7FEBFE7
:0C1D3000FFF7FEBFFFF7FEBFFFF7FEBF8E
:0400000508001C4192
:00000001FF
