:020000040800F2
:100000005804002019100008A10F0008A30F0008D1
:10001000A50F0008A70F0008A90F000800000000A6
:10002000000000000000000000000000AB0F00080E
:10003000AD0F000800000000AF0F0008B10F00086E
:100040003D10000841100008451000084910000844
:100050004D100008511000085510000859100008F4
:100060005D100008611000086510000869100008A4
:100070006D10000871100008751000087910000854
:100080007D100008811000088510000800000000A5
:1000900000000000000000000000000089100008BF
:1000A0008D100008911000089510000899100008A4
:1000B0009D100008A1100008A5100008A910000854
:1000C000AD100008B1100008B5100008B910000804
:1000D000BD100008C1100008C51000080000000095
:1000E000C9100008CD100008D11000080000000061
:1000F000000000000000000000000000D510000813
:1001000000000000D9100008DD100008E110000810
:1001100000000000000000000000000000000000DF
:10012000E5100008E9100008ED100008F1100008C3
:10013000F5100008000000000000000000000000B2
:10014000000000000000000000000000F91000089E
:10015000FD10000801110008051100080911000830
:100160000D1100081111000800000000000000003F
:10017000000000000000000000000000000000007F
:100180000000000015110008000000000000000041
:10019000191100082DE9F843040016D02078AD4E5F
:1001A000C1074AD5B06800F00C00042807D0B06839
:1001B00000F00C0008280AD17068410207D53068A9
:1001C00081033AD56068002837D1012040E160689A
:1001D000B0F5803F04D1306840F48030306011E0E9
:1001E000B0F5A02F306806D140F48020306031682F
:1001F00041F4803105E020F480303060316821F432
:1002000080213160606860B100F02CF905463068EB
:10021000810312D400F026F9401B6528F7D3032090
:1002200016E100F01FF905463068810305D500F09E
:1002300019F9401B6528F7D3F1E72078864F81072D
:1002400018D5B06810F00C0F07D0B06800F00C00A3
:10025000082823D17068410220D43068810702D574
:10026000E0680128B1D13168206921F0F80141EA44
:10027000C00131602178080742D56069774990B3A1
:1002800001220A6000F0EEF80546706F810737D44E
:1002900000F0E8F8401B0228F7D9C0E7E068A8B1F1
:1002A0000121396000F0DEF805463068810705D489
:1002B00000F0D8F8401B0228F7D9B0E73068216970
:1002C00020F0F80040EAC1003060D3E7386000F069
:1002D000C9F8054631688807CCD500F0C3F8401B43
:1002E0000228F7D99BE7086000F0BCF80546706F5C
:1002F000810705D500F0B6F8401B0228F7D98EE734
:10030000207841075FD5306C0025C1000AD40095E4
:100310000125316C41F080513164306C00F0805027
:1003200000900098DFF83881D8F80000C10513D498
:10033000D8F8000040F48070C8F8000000F092F88F
:100340008146D8F80000C10506D400F08BF8A0EB78
:1003500009000228F5D962E7A068012805D0052820
:10036000306F06D140F004003067306F40F001007C
:1003700005E0400840003067306F20F0040030672F
:1003800041F28938A06860B100F06CF88146306FA6
:10039000810713D400F066F8A0EB09004045F6D3BE
:1003A0003DE700F05FF88146306F810706D500F029
:1003B00059F8A0EB09004045F6D330E71DB1306C89
:1003C00020F080503064A069002840D0B16801F06E
:1003D0000C0108293FF4F9AE02282AD10020386622
:1003E00000F040F805463068810105D500F03AF884
:1003F000401B0228F7D912E7E069216A626A0843C4
:10040000A16A490840EA8210491E40EA0140E16AB7
:1004100040EA016070600120386600F023F804466D
:100420003068810113D400F01DF8001B0228F7D9B1
:10043000F5E60020386600F015F8044630688101C2
:1004400005D500F00FF8001B0228F7D9E7E60020D9
:10045000BDE8F2830038024000004742800E474268
:100460000070004001484068704700BF0000002055
:1004700038B5040001D1012032BD00F021F808B9DF
:1004800000F022F800F012F800F023F8FFE74161D5
:1004900000F001F832BD2068C16841F40051C1602C
:1004A0000020686020216970A9707047242068705E
:1004B0002068C16821F40051C160204600F013B8E3
:1004C00004F138056878704700212970204600F053
:1004D00014B92068016921F49041016120684169E3
:1004E00021F02A0170472DE9F0470446642522686F
:1004F0001169E06821F44051014311611926D36864
:100500004848A168034020690B4361690343E069DF
:100510000B430343D3605169A06921F44071014347
:100520005161E36940484149B3F5004F3BD18A42EC
:1005300018BF82420ED100F099F9074600F096F9F3
:10054000804600F093F9814600F090F9824600F071
:100550008DF90DE000F082F9074600F07FF9804642
:1005600000F07CF9814600F079F9824600F076F9D6
:100570006168490000F06BF8AE46BCFBFEFE05FB6F
:100580001E77FF0032376423B7FBF3F35B0003F4FD
:10059000F87300F04DF8ED0032356420B5FBF0F053
:1005A00000F0070039E08A4218BF82420ED100F005
:1005B0005DF9074600F05AF9804600F057F9814688
:1005C00000F054F9824600F051F90DE000F046F9D0
:1005D000074600F043F9804600F040F9814600F0FC
:1005E0003DF9824600F03AF96168890000F02FF881
:1005F000AE46BCFBFEFE05FB1E773F01323764238F
:10060000B7FBF3F303F0F00300F012F82D013235DD
:100610006420B5FBF0F000F00F002168C3188B6078
:10062000BDE8F087F369FFFF0014014000100140AE
:1006300003EB021306FB0AF74643B7FBF1F2B6FBE6
:10064000F1F06421B0FBF1F105FB11257047774310
:10065000B7FBF1F36422B3FBF2F206FB08F3B3FB42
:10066000F1F706FB09F3B3FBF1FC704780B50020FE
:10067000009000223248416841F480414160416865
:1006800001F48041009100990092036843F0805387
:100690000360006800F0805000900098072000F090
:1006A00038F9002200216FF00B0000F03FF9002222
:1006B00000216FF00A0000F039F9002200216FF0EC
:1006C000090000F033F9002200216FF0040000F06F
:1006D0002DF9002200216FF0030000F027F900221D
:1006E00000216FF0010000F021F9BDE80840002270
:1006F00000214FF0FF3000F019B90068114988421D
:1007000000D0704780B586B000220D4800920222CA
:10071000016841F4003101600C21006800F40030F0
:1007200000900098084801910292002103910491E1
:100730000721059101A900F045F907B000BD0000AF
:100740004038024000440040000002402DE9F041E2
:1007500004000F4654D04A4E306800F00F00B842F3
:1007600002D200F072F84BD12068464D810712D5B5
:10077000400703D5A96841F4E051A960207801073A
:1007800003D5A86840F46040A860A968A06821F07B
:10079000F0010143A9602178C80729D560680128C4
:1007A00002D129688A0305E0022818BF032803D173
:1007B00029688A0103D423E029688A0720D5A9681B
:1007C000890840EA8100A860FFF74CFE8046A868CF
:1007D000616800F00C00B0EB810F09D0FFF742FE1A
:1007E000A0EB080041F289318842F0D303202AE0CF
:1007F000306800F00F00874204D200F026F801D0E4
:10080000012020E02078410705D5AA68E06822F49D
:10081000E0520243AA602178080706D5A96820693A
:1008200021F4604141EAC001A96000F035F8AA68EE
:100830001549164BC2F30312895CC84018600020AA
:1008400000F09EF90020BDE8F0813770316801F0BA
:100850000F01B94270470D48006870470B480C4AB9
:10086000006813680B49C3F3822206E00748084A70
:10087000006813680749C3F34232895CC840704777
:10088000003C024000380240FC0E00080C00002032
:10089000083802403410000830B5144C606800F08D
:1008A0000C00042802D0082802D01DE0104830BDFA
:1008B000226820680023410202F03F0204D5256827
:1008C0000B49C5F3881003E020680A49C0F388107B
:1008D000A1FB000100F074F92168C1F30141491C3A
:1008E0004900B0FBF1F030BD024830BD0438024091
:1008F00000127A000024F4000901020006D52A4AF9
:1009000000F00F00104400F8041C7047274B1954E6
:100910007047274B19684FF6FF020002114000F4A0
:10092000E0600843234908431860704770B5204BC6
:100930001C68C4F302230124C3F10705052D2EBF53
:100940000F2504FA05F56D1E1E1D072E34BF00236A
:10095000DB1E2940994004FA03F3BDE870405B1E9A
:100960001A401143C8E710B5401EB0F1807F01D393
:10097000012010BD104C60600F214FF0FF30FFF7D9
:10098000BBFF0021A16007202060002010BD0428CB
:10099000094904D1086840F00400086070470A68FB
:1009A00022F004020A60704718ED00E000E400E065
:1009B0000CED00E00000FA0510E000E000F000B8E7
:1009C000704700002DE9F84F4FF0000E644A654B68
:1009D000DFF894814FF00F0906468A460121DAF8C4
:1009E000004001FA0EF10C408C4240F0AD80DAF884
:1009F0000450022D18BF122D4FEA8E0012D14FEA7B
:100A0000DE0506EB850C00F01C05DCF8207009FA09
:100A100005FB27EA0B07DAF810B00BFA05F53D43A2
:100A2000CCF820504FEA4E0C032537689AF804B0F2
:100A300005FA0CF5ED430BF0030B2F400BFA0CFB02
:100A40004BEA07073760DAF80470012F18BF022F4E
:100A500003D0112F18BF122F13D1B768DAF80CB0DA
:100A60002F400BFA0CFB4BEA0707B760776827EAC1
:100A70000101DAF80470C7F3001707FA0EF73943DB
:100A80007160F1680D40DAF8081001FA0CF12943A1
:100A9000F160DAF80410C90056D50025009500F081
:100AA0000C00D8F8001041F48041C8F8001009FA91
:100AB00000F7D8F8005005F48045009500994FEAFA
:100AC0009E0153F8215025EA0707284DAE4208BF82
:100AD000002513D0264DAE4208BF01250ED0254D6E
:100AE000AE4208BF022509D0234DAE4208BF032500
:100AF00004D0224DAE420CBF0425072505FA00F0B4
:100B0000384343F82100E0431168DAF8045001400B
:100B1000ED0348BF214311605168DAF804500140E9
:100B2000AD0348BF214351609168DAF80450014099
:100B3000ED0248BF21439160D1680140DAF804001A
:100B4000800248BF2143D1600EF1010EBEF10F0FAC
:100B50007FF644AFBDE8F18F02B9090481617047A7
:100B6000003C014008380140443802400000024087
:100B70000004024000080240000C02400010024045
:100B800038B50D4D0D4B2A7804464FF47A7118682C
:100B9000B1FBF2F2B0FBF2F0FFF7E5FE50B9102C1A
:100BA00008D2002221464FF0FF30FFF7BFFEAC60B5
:100BB000002032BD012032BD000000200C000020CA
:100BC000D3BBD9B1B2F5803F5BD2022A1ED98C4685
:100BD000B1FBF2F102FB11C31B0443EA1043B3FB68
:100BE000F2FC02FB1C3380B240EA0343B3FBF2F099
:100BF00002FB103240EA0C4000237047022A05D95C
:100C00008446B0FBF2F002FB10C270474AB105D136
:100C100000F0010249085FEA30007047002200231B
:100C2000704700F051B80B0002000021002070470F
:100C3000F7D3002200237047904271EB030CF2D3EC
:100C400070B5B1FA81F4B3FA83F52C1BA340C4F15B
:100C5000200532FA05F63343A2405FF00046E64035
:100C600002E05B085FEA3202841A71EB030524BFDD
:100C7000204629467641F4D302000B0030000021C3
:100C800070BD70B5B1FA81F4B2FA82F5C4F12004F6
:100C90006419B4F12006DAD3B2405FF00044F440A6
:100CA000002502E052085FEA3303C61A71EB020E18
:100CB00024BF3046714664416D41F3D302000B00FE
:100CC0002000290070BD00007047000038B586B0D4
:100CD00000F0D2F800F066F8002000905D4C5E480D
:100CE0005E4D016841F004010160026802F00402F7
:100CF0000092002200990092036843F08003036091
:100D0000016801F08001009100990092036843F0AE
:100D100001030360016801F0010100910099009254
:100D20002021036843F002030360006800F0020022
:100D3000009000982046FFF70FFF4FF400504849FD
:100D4000019002910022039201A94648FFF73AFE62
:100D5000202101910122002103910491029201A915
:100D60002046FFF72FFE404828604FF4E1310C2069
:100D7000002268616960AA60EA602A61AA61EA618A
:100D80002846FFF775FB00B1FEE738482864616923
:100D900081F020016161286C0128A4BF401E2864F5
:100DA000F9DAF2E780B592B000200090304801688F
:100DB00041F0805101600021006800F080500090F7
:100DC00000982C4800910221026822F4404242F42B
:100DD000004202600122006800F440400090009848
:100DE0000691099210210A91022200210C920D9184
:100DF00010224FF4A8710E920F9104220721109235
:100E0000119106A8FFF7C6F900B1FEE70221029191
:100E10000F204FF48051019000220491039205921B
:100E2000022101A8FFF792FC00B1FEE7FFF713FDD6
:100E30004FF47A71B0FBF1F0FFF795FD0420FFF756
:100E4000A6FD002200214FF0FF30FFF76FFD13B029
:100E500000BD0000000002403038024010000020B9
:100E600000002110000802400044004040420F00F2
:100E7000403802400070004080B50B48016841F4E2
:100E800000710160026842F480620260016841F40E
:100E9000807101600320FFF73CFD0020FFF770FE2A
:100EA000FFF7E4FB002002BD003C02400E48016851
:100EB00041F47001016000220C49086840F0010013
:100EC00008608A600B680A480A4A03400B604A605F
:100ED00000200B68084A23F480230B60C8604FF0A1
:100EE000006111607047000088ED00E000380240AA
:100EF000FFFFF6FE1030002408ED00E000000000C7
:100F000000000000010203040607080930B501686B
:100F100084684218416802EB5103C90703D54C4469
:100F200001E0491C05D19A420AD012F9011B12F8BE
:100F3000015B002904F8015BF3D4491EF7D5F2E701
:100F40000C3030BD10B5074979441831064C7C444B
:100F5000163404E00A68081D114488470146A1427E
:100F6000F8D110BD2C000000380000004EF688516A
:100F7000CEF20001086840F470000860BFF34F8FA4
:100F8000BFF36F8F4FF00070E1EE100A7047000062
:100F90007DFFFFFF880100001A0000000000002014
:100FA0007047FEE7FEE7FEE7FEE7704770477047D1
:100FB00080B500F005F8BDE80140FFF7FFBC000078
:100FC0000248416802788A18426070470000002099
:100FD00000F00DF8002801D0FFF7B4FFAFF3008058
:100FE0000020AFF30080FFF771FE00F002F801204F
:100FF000704700F001B800000746384600F002F8DC
:10100000FBE7000080B5AFF30080024A1100182012
:10101000ABBEFBE7260002000148804701480047BD
:10102000AD0E000829100008AFF30080FFF79EFF07
:10103000FFF7CEFF0000000001020304FFF7FEBF30
:10104000FFF7FEBFFFF7FEBFFFF7FEBFFFF7FEBFD4
:10105000FFF7FEBFFFF7FEBFFFF7FEBFFFF7FEBFC4
:10106000FFF7FEBFFFF7FEBFFFF7FEBFFFF7FEBFB4
:10107000FFF7FEBFFFF7FEBFFFF7FEBFFFF7FEBFA4
:10108000FFF7FEBFFFF7FEBFFFF7FEBFFFF7FEBF94
:10109000FFF7FEBFFFF7FEBFFFF7FEBFFFF7FEBF84
:1010A000FFF7FEBFFFF7FEBFFFF7FEBFFFF7FEBF74
:1010B000FFF7FEBFFFF7FEBFFFF7FEBFFFF7FEBF64
:1010C000FFF7FEBFFFF7FEBFFFF7FEBFFFF7FEBF54
:1010D000FFF7FEBFFFF7FEBFFFF7FEBFFFF7FEBF44
:1010E000FFF7FEBFFFF7FEBFFFF7FEBFFFF7FEBF34
:1010F000FFF7FEBFFFF7FEBFFFF7FEBFFFF7FEBF24
:10110000FFF7FEBFFFF7FEBFFFF7FEBFFFF7FEBF13
:10111000FFF7FEBFFFF7FEBFFFF7FEBF0001F900BC
:091120000010FC000124F4BB00E6
:0400000508001029B6
:00000001FF
